:020000040800F2
:10000000600600209D010008794900087B4900082E
:100010007D4900087F490008814900080000000070
:1000200000000000000000000000000083490008FC
:100030008549000800000000874900088B49000836
:10004000B7010008B7010008B7010008DF3D00084C
:10005000B7010008B7010008BB480008B701000855
:10006000B7010008B7010008B7010008B701000890
:10007000B7010008B7010008B7010008B701000880
:10008000B7010008B7010008B7010008B701000870
:10009000B7010008B7010008B7010008B701000860
:1000A000B7010008B7010008B7010008B701000850
:1000B000B3480008B7010008B7010008B7010008FD
:1000C000B7010008B7010008B7010008B701000830
:1000D000B7010008B7010008B70100088B48000805
:1000E000B7010008013E0008B7010008B701000889
:1000F000B7010008B7010008B7010008B701000800
:10010000B7010008B7010008B7010008B7010008EF
:10011000B7010008B7010008B7010008B7010008DF
:10012000B7010008B7010008B7010008B7010008CF
:10013000B7010008B7010008B7010008B7010008BF
:10014000B7010008B7010008B7010008B7010008AF
:10015000B7010008B7010008B7010008B70100089F
:10016000B7010008B7010008B7010008B70100088F
:10017000B7010008B7010008B7010008B70100087F
:10018000B7010008B7010008DFF80CD005F08AF9C4
:1001900000480047B1460008600600200648804736
:1001A00006480047FEE7FEE7FEE7FEE7FEE7FEE75C
:1001B000FEE7FEE7FEE7FEE7D745000889010008F5
:1001C0002849084328490860704730B50F23C27892
:1001D00001780125FAB1244A126801F1E02102F404
:1001E000E062C2F5E062C2F30722C2F10404D34028
:1001F0004278A24084781C401443220181F80024F4
:10020000007800F01F018D404009800000F1E020DF
:10021000C0F8005130BD01F01F0085404809800042
:1002200000F1E020C0F8805130BD104A1140014378
:100230000D48001F016070470B4A121D002911680C
:1002400001D0014300E08143116070474FF0E0218D
:100250000428086903D020F004000861704740F0CA
:100260000400FAE70000FA050CED00E080FFFF1F34
:10027000F848016841F001010160F64A00210832A6
:1002800011600268F44B1A400260031DF34A1A60C1
:10029000F04BF34A84331A60F04A103A1B1D1A607F
:1002A000026822F480220260EA480C300160181DC6
:1002B00001607047E7490022891C0A700870704786
:1002C00002460020510901290CD002290CD0E14935
:1002D0007431096802F01F02012393400B4200D0E1
:1002E00001207047DB49F4E7DA497031F1E718B5CE
:1002F00000204FF4A04400903120FFF7E1FF009967
:10030000491C0091A14201D00028F5D03120FFF70F
:10031000D7FF002800D0012018BDCE4A116821F077
:10032000F80141EAC00010607047CE49086070478C
:10033000C849002270310A700A70012802D00428CE
:1003400001D1052008707047C7490860704741EA2D
:1003500082115A0810B5C54B029C03EB02421143AF
:10036000014341EA0460BB49091D086010BDBD4955
:1003700008667047800140EA0170B6498431086020
:100380007047B84988667047800140EA0160B1490A
:1003900040EA0270883108607047B24908677047C8
:1003A000B049C8647047AB4B08331A68084322F061
:1003B000EC62104318607047A64B08331A68084374
:1003C00022F07842104318607047A24A0832116840
:1003D00021F003010143116070479E480830006816
:1003E00000F00C0070479B4A0832116821F0F001C0
:1003F000014311607047974A0832116821F4E051B7
:10040000014311607047934A0832116821F460413A
:1004100041EAC0001060704770B58E4B0833196810
:10042000934C11F00C0104D06610042903D0082964
:1004300003D004601BE0066019E0864A121D1168B3
:10044000C1F38055116801F03F0115B1B6FBF1F120
:1004500001E0B4FBF1F114681268C4F3881461433D
:10046000C2F30142521C5200B1FBF2F10160196863
:100470000F2202EA11117F4A545C0168E140416099
:100480001C68072505EA9424145D21FA04F48460AD
:100490001B6805EA5333D25CD140C16070BDC0F324
:1004A0000121032908D16B4B08331968724A21F4E2
:1004B000F81102400A431A60664970310A68C0F3B5
:1004C0000B0002430A60704767494439086070476F
:1004D00065494039086070476249C1F85C0170475E
:1004E0005C4A8C32116821F440110143116070475D
:1004F000584A8C32116821F4400101431160704761
:10050000544A8C321168401E21F01F0101431160D2
:100510007047504A8C3211686FF0FF0321F4F85194
:1005200003EB00200843106070474A4A8C32116880
:1005300021F440310143116070475049C1F8E00196
:100540007047444A30320029116801D0014300E06D
:100550008143116070473F4A34320029116801D04D
:10056000014300E08143116070473A4A3832002964
:10057000116801D0014300E0814311607047354AA2
:1005800040320029116801D0014300E0814311602D
:100590007047304A44320029116801D0014300E01D
:1005A0008143116070472B4A10320029116801D035
:1005B000014300E0814311607047264A143200294C
:1005C000116801D0014300E0814311607047214A66
:1005D00018320029116801D0014300E08143116005
:1005E00070471C4A20320029116801D0014300E005
:1005F000814311607047174A24320029116801D0E5
:10060000014300E0814311607047124A50320029D3
:10061000116801D0014300E08143116070470D4A29
:1006200054320029116801D0014300E08143116078
:100630007047084A58320029116801D0014300E090
:10064000814311607047034A60320029116817D056
:10065000014316E000380240FFFFF6EA10300024A4
:100660000030002000004742800E47420000FFFF9C
:100670000024F40000000020FFFCFF0F00104742A0
:10068000814311607047194A0029116801D0014364
:1006900000E081431160704714490C31012808685B
:1006A00003D020F008000860704740F00800FAE727
:1006B0000E4A573A0029117801D0014300E08143E6
:1006C0001170704709481030016841F08071016075
:1006D00070470146054A0020583A12680A4200D085
:1006E000012070470149563908707047643802404C
:1006F000774910B5884206D101210846FFF753FF1C
:10070000002101205BE07349884206D101210220CB
:10071000FFF749FF0021022051E06F49884206D1CE
:1007200001210420FFF73FFF0021042047E06B492F
:10073000884206D101210820FFF735FF002108205B
:100740003DE06749884206D101211020FFF72BFFC9
:100750000021102033E06349884206D10121202086
:10076000FFF721FF0021202029E05F49884206D1C0
:1007700001214020FFF717FF002140201FE05B49C7
:10078000884206D101218020FFF70DFF0021802043
:1007900015E05749884202D1012184150AE05549E4
:1007A000884202D10121441504E0534988420AD10C
:1007B000012104152046FFF7F6FE00212046BDE882
:1007C0001040FFF7F0BE10BDF0B5002201274FF03A
:1007D000030C0B6807FA02F52B40AB422CD10668DC
:1007E00053000CFA03F4A64306600E79D0F800E03B
:1007F0009E4046EA0E0606600E79012E01D0022EBA
:1008000012D18668A64386604E79D0F808E09E40F3
:1008100046EA0E0686604668AE43466045688E79B5
:100820009640B6B235434560C568A543C560CC79EE
:100830009C40C3681C43C460521C102AC9D3F0BD3D
:100840004FF6FF7101600021017141718171C17129
:10085000704708B541F480320092C261C1610099CD
:10086000C161C169C069009008BD024600201269DB
:100870000A4200D001207047006980B270470246EA
:10088000002052690A4200D001207047406980B2BE
:10089000704701837047418370470AB101837047F5
:1008A000418370474161704742694A4042617047E5
:1008B0004B07DB0E9A40C90810B500EB8100016AB6
:1008C0000F249C40A1430162016A1143016210BDE3
:1008D000000002400004024000080240000C0240F8
:1008E000001002400014024000180240001C0240A8
:1008F00000200240002402400028024010B50121DF
:100900000C022046FFF777FE2046BDE8104000218C
:10091000FFF771BE30B54268C84B0C791A400B68BE
:1009200042EA0422134343608268C54B4D791A4062
:10093000D1E9034323438C6844EA4504234313432A
:100940008360C26A097D22F47002491EC9B242EA7C
:100950000151C16230BD00210160017141718160AE
:10096000C1600161012101757047B64B10B5D3F824
:100970000423B5490A40D0E900142143D0E90240DC
:10098000044321431143C3F8041310BD0021016047
:1009900041608160C16070470029816802D041F0E8
:1009A000010101E021F00101816070474268A74B1D
:1009B0001A400A434260704741628262704742684F
:1009C00022F01F020A43426070479E490028D1F876
:1009D000040302D040F4000001E020F40000C1F85C
:1009E0000403704797490028D1F8040302D040F46B
:1009F000800001E020F48000C1F80403704770B566
:100A0000072609290AD9C568A1F10A0404EB4404A0
:100A1000A640B543A3401D43C56007E0056901EB4F
:100A20004104A640B543A3401D4305611F23072A87
:100A300009D2446B521E02EB820293409C439140C8
:100A40000C43446370BD0D2A09D2046BD21F02EB24
:100A5000820293409C4391400C43046370BDC46A7E
:100A60000D3A02EB820293409C4391400C43C462D6
:100A700070BD816841F0804181607047014600206F
:100A80008968490000D5012070470029816802D09B
:100A900041F4806101E021F48061816070470029A8
:100AA000816802D041F0020101E021F00201816081
:100AB00070474268491E22F4604242EA4131416077
:100AC00070470029416802D041F4006101E021F43F
:100AD000006141607047C06C80B270475948D0F8DF
:100AE000080370470029816802D041F4807101E059
:100AF00021F48071816070470029816802D041F43F
:100B0000007101E021F40071816070474D490028B7
:100B1000D1F8040302D040F4005001E020F400506A
:100B2000C1F80403704770B5072609290AD9C568BA
:100B3000A1F10A0404EB4404A640B543A3401D43BD
:100B4000C56007E0056901EB4104A640B543A34039
:100B50001D430561836BC3F30154121B921C02EB0E
:100B600082021F249440A34391400B43836370BDD2
:100B7000826B491E22F4401242EA015181637047A0
:100B800008B508440090026008BD826822F4702213
:100B90000A4382607047826822F440120A438260EE
:100BA0007047816841F480018160704701460020F0
:100BB0008968490200D5012070470029416802D0A8
:100BC00041F4806101E021F48061416070470029B7
:100BD000416802D041F4805101E021F4805141602C
:100BE000704708B5084428300090006880B208BDFE
:100BF00001238B4041680AB1194300E099434160E9
:100C000070470246002012680A4200D00120704757
:100C1000C9430160704730B50246002053680C0A92
:100C200001258D4011682B40214202D0002B00D0BD
:100C3000012030BD6FEA112101607047FFFEFFFC0B
:100C4000FDF7FFC000200140E030FCFFFFFD3FFF4B
:100C5000354900200860091D0860091D0860091D4C
:100C600008603149314814310860704730B52E4A68
:100C70008379016853B313688B431360111D0B68AC
:100C80000468A3430B60017911440B680468234393
:100C90000B60254B083319680468A14319601C1DBB
:100CA00021680568A94321604179102905D01144C4
:100CB0000A68006802430A6030BD1968026811437F
:100CC0001960216800680143216030BD007910443B
:100CD00002688A43026030BD0021016001710C226C
:100CE000427181717047104910310A6802430A60ED
:100CF000704701460C4A0020143212680A4200D0A4
:100D00000120704708491431086070470146064ABF
:100D10000020143212680A4200D0012070470249B4
:100D20001431086070470000003C0140FFFF7F0065
:100D300010B501210C072046FFF753FC2046BDE803
:100D400010400021FFF74DBC3B49086270473B4A09
:100D5000116821F0E00101431160704736490861D4
:100D600070473549C1F8A00070473349C1F8A40065
:100D70007047324A116821F44041014311607047C5
:100D80002D49086470472C49486470472B49002856
:100D9000086802D040F4402001E020F440200860C0
:100DA0007047254948627047244B10B51A6840F6D1
:100DB0000344A24302431A602148026842F004023D
:100DC0000260012905D020BF016821F00401016003
:100DD00010BD30BFF8E7194B10B51A6840F6034450
:100DE000A24302431A601648026842F004020260FD
:100DF000012905D020BF016821F00401016010BD68
:100E000030BFF8E70D48016841F0020101600C486D
:100E1000016841F00401016030BF7047074A014694
:100E2000002052680A4200D00120704703490A6836
:100E300042EA80000860704700000E4200700040E7
:100E400010ED00E018B50020FA4B0090CA201860A1
:100E500053201860F7491839086820F0A00008608E
:100E60004FF400340868009A00F02000521C0092F1
:100E7000A24201D00028F5D00868800601D50120E3
:100E800000E00020FF21196018BD08B5E9490020E5
:100E9000183900900868400612D44FF0FF300860FF
:100EA0008B130868009A00F04000521C00929A428E
:100EB00001D00028F5D00868400601D4002008BD04
:100EC000012008BD78B50024DA4ECA2000942546DA
:100ED000306053203060FFF7D8FFE0B3D5482438A6
:100EE0000460D44942F20110203908600B1D1868D3
:100EF00000F0070018608D131A1D1068009900F0AB
:100F00000400491C0091A94201D00028F5D01068C6
:100F1000400729D518681C60C6494FF6FF70103984
:100F20000860091FC4480860C2480C380460001DEE
:100F30000460001D0460BF4808300460BD481830DC
:100F40000460BC4820300460001D04601460B9488F
:100F50001C30046000E003E0FFF774FF20B10125BE
:100F6000FF203060284678BD0025F9E7B1481838E1
:100F7000016821F080010160704770B5AD4E0446F4
:100F80000025CA20306053203060FFF77EFFA8B1F3
:100F9000A8481C38016821F04001016001682268FE
:100FA00011430160A348A168143801600168A28858
:100FB00041EA02410160FFF7D9FF0125FF203060BF
:100FC000284670BD002101607F214160FF218160C2
:100FD0007047984908B1FF2002E0CA2008605320FA
:100FE0000860704770B5934E05460024CA203060F3
:100FF00053203060FFF749FF60B18E481C3801680C
:1010000015B141F0100101E021F010010160FFF77E
:10101000ADFF0124FF203060204670BD854ACA2103
:1010200011605321116083491C390028086802D0DF
:1010300040F0200001E000F0DF000860FF201060B9
:1010400070472DE9F0410C4600267C4F01002078C6
:10105000396832464FEA416104D000292FDA00F0A6
:1010600008FC2DE0002900DBE27000F0F6FB05042F
:10107000607800F0F2FB45EA0025A07800F0EDFB77
:101080000543E07845EA00456A4CCA2020605320B9
:101090002060FFF7FAFE68B16948054067480838E4
:1010A0000560FFF763FF3868800602D4FFF7CAFEC9
:1010B00000B10126FF2020603046BDE8F081E270DB
:1010C000A078217840EA01456078E178000240EAA2
:1010D00001400543D8E70021C17001704170817063
:1010E0007047020010B557480C460168544801EAA1
:1010F0000001C1F305402070C1F30623637001F0C5
:101100007F03A3704FF0400303EA1141E1700AD15D
:1011100000F0AFFB2070607800F0ABFB6070A0784F
:1011200000F0A7FBA07010BD4248001D00684349B5
:10113000091F0968704770B50C46002601006078E9
:101140000FD000F096FBA07800F093FBA078E17838
:1011500040EA014560782178000240EA41300543C9
:1011600015E0C10603D520F010000A306070E07869
:1011700000F073FB0504607800F06FFB45EA002582
:10118000A07800F06AFB0543207845EA4035294CF9
:10119000CA20206053202060FFF777FE70B12A48F4
:1011A00005402648001F0560FFF7E0FE2348006861
:1011B000800602D4FFF746FE00B10126FF20206022
:1011C000304670BD01210170817041700021C170F5
:1011D0007047020010B51D480C4601681A4801EA24
:1011E00000014FEA1140E070C1F30423637001F085
:1011F0003F03A370C1F3423121700AD100F039FBE3
:10120000E070607800F035FB6070A07800F031FB92
:10121000A07010BD70B514460D46084A0021002884
:1012200010684FEA406013D000282ADA207800F0D6
:1012300020FB27E024280040FF007F000828004012
:101240007F7F7F00002800403FFFFF000428004010
:10125000002800DBE170207800F0FFFA06046078D7
:1012600000F0FBFA46EA0026A07800F0F6FA064302
:10127000E07846EA0046207B00F0EFFA46EA00609C
:1012800010E0E170207B00F0F4FAA0782178E27899
:1012900040EA01406178090241EA02410843217BAA
:1012A00040EA0160A168084361680843F849CA221E
:1012B0000A6053220A60B5F5807F04D00A1F1060CF
:1012C000FF20086070BDF24A083AF8E70021C170BB
:1012D000017041708170012281600273416070472A
:1012E00010B514460246B1F5807F2AD0E848001FA9
:1012F0000168C1F305402070C1F30623637001F05B
:101300007F03A370402303EA1143E370C1F3056335
:10131000237301F0804301F08031C4E90113002AF6
:101320000ED100F0A6FA2070607800F0A2FA60708A
:10133000A07800F09EFAA070207B00F09AFA20734B
:1013400010BDD3480838D3E738B50022D04C0092FE
:10135000CA22226053222260CD4A1C3A0029116819
:1013600002D00143116012E081431160C84A183A6B
:1013700095131168009B01EA10215B1C0093AB429E
:1013800001D00029F5D0116811EA102000D0012009
:10139000FF21216038BD10B5BD4BCA241C60532409
:1013A0001C601143B0F5807F05D0B948243001603E
:1013B000FF20186010BDB6482030F8E7B0F5807FF8
:1013C00005D0B34824300068C0F30E007047B04821
:1013D0002030F8E7AE4ACA21116053211160AC49B0
:1013E0001C390B6823F007030B600B6803430B6089
:1013F000FF2010607047A649CA220A6053220A6083
:10140000A34A103A1060FF2008607047A0481038C7
:10141000006880B2704718B500219D4B0091CA2129
:101420001960532119609A491C390028086803D0B3
:1014300040F48060086014E020F480600860944903
:1014400018398C130868009A00F00400521C0092AE
:10145000A24201D00028F5D00868400701D400203E
:1014600000E00120FF21196018BD894B10B5CA2288
:101470001A6053221A60864A1C3A146824F48024A5
:1014800014601468084304431460FF20186010BD02
:101490007F481C38006800F4802070477C4B10B5F2
:1014A000CA221A6053221A60794A1C3A146824F43A
:1014B000E00414601468084304431460FF201860BB
:1014C00010BDF0B5724D06460024CA200F462860B4
:1014D00053202860FFF7D9FC30B16D483E430C38EB
:1014E0000660FFF743FD0124FF2028602046F0BD81
:1014F00070B5674E05460024CA2030605320306026
:10150000FFF7C3FC60B162481C38016815B141F0B7
:10151000800101E021F080010160FFF727FD012437
:10152000FF203060204670BD594ACA211160532106
:10153000116057491C390028086802D040F40000A7
:1015400001E020F400000860FF2010607047504A5E
:10155000CA211160532111604D491C390B6823F4D5
:1015600000230B600B6803430B60FF201060704783
:10157000F0B5474D0023CA242C6053242C60444C02
:10158000183C2668F60308D54FF400362768FF0399
:1015900003D5B34201D05B1CF8E72368DB0306D414
:1015A00008433B49104318310860012000E0002047
:1015B000FF212960F0BD364B10B51C3B1A6840F680
:1015C0000804A24342EA000209B142F40062304832
:1015D000CA210160532101601A60FF21016010BD22
:1015E00070B50D462A4914460C310968294A114044
:1015F000274A103212684FF63F731A40C1F3054371
:101600002B70C1F306236B7001F07F03AB70402396
:1016100003EA1141E9700021E170C2F30421617015
:1016200002F03F01A170C2F342312170002817D1AE
:10163000287800F01EF92870687800F01AF96870B0
:10164000A87800F016F9A870607800F012F96070C0
:10165000A07800F00EF9A070207800F00AF9207050
:1016600070BD0B48143000687047094A1C320029CD
:10167000116803D041EA40001060704721EA400041
:10168000FAE7034A1C320029116805D0014304E03F
:10169000242800407F7F7F00814311607047794993
:1016A0000A6822F4C0520A600A6802430A6070475E
:1016B00074490A6822F4E0620A600A6802430A6018
:1016C000704770490A6822F4C0420A600A680243FF
:1016D0000A6070476B490028086802D040F080001B
:1016E00001E020F080000860704766490028086823
:1016F00002D020F4004001E040F400400860704750
:10170000604A08B5103202EB80000090016008BD0D
:101710005C4908B5103101EB80000090006808BDFD
:1017200058490A6822F480320A600A6802430A6053
:10173000704754490A6822F400320A600A6802437A
:101740000A6070474F490A6822F480220A600A68DA
:1017500002430A60704770B54A4C0022CA231C3C01
:10176000236053232360474B343B1D682D0707D567
:101770009E141D682D0703D5B24201D0521CF8E714
:101780001A6812070DD43F4A383A1268D20608D4B4
:1017900001433C4814380160FFF754FB10B10120AD
:1017A00000E00020FF21216070BD30B5354DCA2218
:1017B0001C3D2A6053222A60324C20F00402383C3F
:1017C0000029304B216800F0040004D0114321604F
:1017D0001968014303E0914321601968814319604E
:1017E000FF20286030BD02462649002034390968B0
:1017F000254B1940114200D00120704780B240F0C3
:101800008000C1431F483438026802F0800211434F
:10181000016070471B4A0021126802F00403194A54
:10182000383A126803EAD03302401A43174B1B6858
:1018300003EA101003D00004000C00D00121084678
:101840007047C0F30F1040F08000C1430F4802689A
:1018500002F08002114301607047002103E0491C3F
:101860000A38C9B2C0B20A28F9D2090740EA1160A1
:101870007047010901EB810100F00F0000EB41000E
:10188000C0B27047402800407F3F01000C28004054
:10189000FE4910B5884206D101210846FEF7ABFE8D
:1018A000002101205BE0B0F1804F09D0F849884267
:1018B0000DD101210220FEF794FE0021022070E0EC
:1018C00001210846FEF78DFE0021012069E0F14963
:1018D000884206D101210420FEF783FE0021042066
:1018E0005FE0ED49884206D101210820FEF779FE2C
:1018F0000021082055E0E949884206D10121102045
:10190000FEF76FFE002110204BE0E549884206D12A
:1019100001212020FEF765FE0021202041E0E14961
:10192000884206D101210220FEF765FE0021022037
:1019300015E0DD49884202D101210C040AE0DB49AF
:10194000884202D101214C0404E0D94988420AD1DD
:1019500001218C042046FEF74EFE00212046BDE802
:101960001040FEF748BED349884206D101214020ED
:10197000FEF737FE0021402013E0CF49884206D110
:1019800001218020FEF72DFE0021802009E0CB49B7
:1019900088420AD1841501212046FEF722FE00214B
:1019A0002046BDE81040FEF71CBE10BD30B50288D1
:1019B000B64CBC4DA0420DD0A8420BD0B0F1804F28
:1019C00008D0B34B984205D0B24B984202D0B24BEC
:1019D000984203D122F070034A881A43AF4B9842D1
:1019E00006D0AF4B984203D022F440730A891A43C1
:1019F00002804A68C2620A880285A04201D0A842D9
:101A000001D1897A01860121818230BD4FF0FF31F9
:101A10004160002101800181418081727047018510
:101A200082827047028822F070020A430280704767
:101A300041627047C1627047406A7047008D7047CD
:101A40000029018802D041F0020101E021F00201E9
:101A5000018070470029018802D041F0040101E0B3
:101A600021F00401018070470029018802D041F073
:101A7000800101E021F0800101807047028822F09E
:101A80000802028002880A4302807047028822F41A
:101A90004072028002880A43028070470029018850
:101AA00002D041F0010101E021F001010180704705
:101AB00030B5028C22F001020284028C8388048BF0
:101AC00022F0020224F073050C882C438D89154303
:101AD0004A882A436D4DA84202D0724DA8420DD1CA
:101AE00022F00805CA8923F440732A4322F0040532
:101AF0008A882A430D8A1D434B8A2B4383800483A3
:101B000089684163028430BD70B5028C22F01002F6
:101B10000284028C8388048B0D8824F4E6464FF6F9
:101B2000FF7404EA052535438E8922F0200204EA79
:101B3000061616434A8804EA02123243534EB04254
:101B400002D0584EB04215D122F08006CA8923F443
:101B5000406304EA0212324322F040068A8804EA13
:101B6000021232430E8A04EA86061E434B8A04EAB6
:101B7000830333438380058389688163028470BD56
:101B800070B5028C22F480720284028C8388848B6C
:101B90000D8824F0730425438E894FF6FF7422F4D8
:101BA000007204EA062616434A8804EA02223243F7
:101BB000364EB04202D03B4EB04215D122F4006600
:101BC000CA8923F4405304EA0222324322F4806695
:101BD0008A8804EA022232430E8A04EA06161E4369
:101BE0004B8A04EA03133343838085838968C16386
:101BF000028470BD70B5028C22F480520284058C80
:101C00008288838B0C8823F4E6464FF6FF7303EA41
:101C10000424344325F400568D8903EA0535354301
:101C20004E8803EA06362E43184DA84202D01D4DB9
:101C3000A84205D122F480450A8A03EA82122A4387
:101C40008280848389680164068470BD00210180DC
:101C50004180818081608181C181018241827047A0
:101C600030B50124058C00F118038C40A543058490
:101C700031B308292CD0091FC1F34E001844016864
:101C800048F6FF731940016001681AE00000014046
:101C90000004004000080040000C0040001000401C
:101CA0000014004000040140004001400044014095
:101CB0000048014000180040001C00400020004087
:101CC00006E04FF6FF7303EA02221143016030BDC4
:101CD00003EB510001684FF68F73194001600168F2
:101CE000F3E74163704781637047C16370470164E4
:101CF0007047028B22F070020A4302837047028B06
:101D00004FF6FF7322F4E04203EA012111430183FD
:101D10007047828B22F070020A4382837047828B65
:101D20004FF6FF7322F4E04203EA0121114381835D
:101D30007047028B22F008020A4302837047028B2D
:101D40004FF6FF7322F4006203EA0121114301837D
:101D50007047828B22F008020A4382837047828B8D
:101D60004FF6FF7322F4006203EA012111438183DD
:101D70007047028B22F004020A4302837047028BF1
:101D80004FF6FF7322F4806203EA012111430183BD
:101D90007047828B22F004020A4382837047828B51
:101DA0004FF6FF7322F4806203EA0121114381831D
:101DB0007047028B22F080020A4302837047028B35
:101DC0004FF6FF73C2F30E0203EA012111430183B0
:101DD0007047828B22F080020A4382837047828B95
:101DE0004FF6FF73C2F30E0203EA01211143818310
:101DF0007047028C22F002020A4302847047028C70
:101E000022F008020A4302847047028C4FF6FF73E7
:101E100022F0200203EA0111114301847047028C71
:101E20004FF6FF7322F0800203EA0111114301848F
:101E30007047028C4FF6FF7322F4007203EA01210F
:101E4000114301847047028C4FF6FF7322F4006245
:101E500003EA0121114301847047028C4FF6FF739E
:101E600022F4005203EA013111430184704710B596
:101E70000123048C8B409C430484038C8A401343CD
:101E8000038410BD10B50423048C8B409C43048450
:101E9000038C8A401343038410BD828B22F440627A
:101EA0008283828B4FF6FF7303EA01210A43828308
:101EB0007047828B22F00C028283828B0A438283DA
:101EC0007047028B22F440620283028B4FF6FF734D
:101ED00003EA01210A4302837047F0B5048C24F021
:101EE00010040484078B068C4FF6FF7404EA011576
:101EF00027F4734704EA0331394304EA02220A4310
:101F000026F0A001294341F0100102830184F0BDB5
:101F1000028B22F00C020283028B0A430283704779
:101F20002DE9F0410C460E884988A2882389054690
:101F30000EB3042E26D0082E2E8C4FF6FF7028D01C
:101F400026F480562E84AF8B2E8C00EA022200EA03
:101F5000013127F473473A4300EA0330104326F473
:101F600020420A4342F48051A8832984E18828460C
:101F7000BDE8F04191E700F062F9E1882846BDE84C
:101F8000F041C5E7FFF7A9FFE1882846BDE8F04129
:101F900097E726F480762E84AF8B2E8C00EA012101
:101FA00000EA0310104327F0F307384326F42062B9
:101FB0000A4342F48071A8832984E1882846BDE859
:101FC000F04176E700210180418001228280C180BA
:101FD000018170472DE9F0410C46002649880746EB
:101FE000012501B90226A288012A00D102252088F4
:101FF00023890028384610D0FFF76FFFE188384664
:10200000FFF75FFF23892A463146384600F017F96B
:10201000E1883846BDE8F0417AE700F010F9E18840
:102020003846FFF775FF23892A4631463846FFF7C1
:1020300054FFE1883846BDE8F04142E7406B704705
:10204000806B7047C06B7047006C704710B50A8892
:102050004B88CC881A438B8823431A430B891A4335
:102060004B8989891A430A43A0F8442010BD0021F6
:10207000018041808180C1800181418181817047DF
:10208000002930F8441F02D041F4004101E0C1F3BF
:102090000E01018070470029818802D041F00401BF
:1020A00001E021F00401818070470029818802D07D
:1020B00041F0010101E021F0010181807047002A17
:1020C000828901D00A4300E08A438281704781827D
:1020D000704702460020128A0A4200D00120704751
:1020E000C9430182704702460020138A92890B423D
:1020F00002EA010202D0002A00D001207047C94341
:10210000018270471143A0F848107047002A828965
:1021100001D00A4300E08A43828170470029818808
:1021200002D041F0080101E021F0080181807047F0
:10213000018921F0070101817047028922F07002B4
:102140000A430281704700B50346FFF7F6FF18897E
:1021500040F00700188100BD70B516460D46602995
:1021600004464FF0010231460AD000F068F82946D3
:102170002046FFF7E2FF208940F00700208170BD74
:10218000FFF7ABFEF3E730B504894FF6FF7505EABC
:1021900003231343E4B20B432343038130BD10B543
:1021A0000446FFF7F0FF208940F07700208110BD42
:1021B00010B50446FFF7E7FF208940F480402081F6
:1021C00010BD828822F07002828082880A43828059
:1021D0007047028922F00702028102890A430281C4
:1021E0007047028922F08002028102890A4302813B
:1021F000704770B50589048B068C25F007050D43E3
:102200004FF6FC410C4040F201110C434FF6FF71B8
:1022100001EA031126F022061143314305810483AC
:10222000018470BD0029818802D041F0800101E065
:1022300021F0800181807047A0F85010704770B580
:10224000048C24F001040484058B048C4FF6FF7683
:1022500006EA0313134325F0F3052B4324F00A0287
:102260000A4342F001010383018470BDCD4910B5DA
:10227000884206D101211020FEF7BDF9002110206F
:1022800020E0C949884202D101214C0429E0C74914
:10229000884202D101218C0423E0C549884202D141
:1022A0000121CC041DE0C349884202D101210C0563
:1022B00017E0C149884209D101212020FEF79BF98E
:1022C00000212020BDE81040FEF795B9BB498842A7
:1022D00002D101218C0704E0B94988420AD10121C9
:1022E00044052046FEF77DF92046BDE81040002158
:1022F000FEF777B910BD7FB50446008A0D46C98840
:1023000020F4405001432182A08941F20C618843AE
:10231000A9882A8911436A8902431143A181A08AAD
:1023200020F44071A8890843A0826846FEF774F83B
:102330009C48844202D0A048844201D1039800E026
:102340000298A189090400EBC00101EB0010296883
:1023500001D5490000E08900B0FBF1F06422B0FB38
:10236000F2F109010B096FF018056B4300EB8300D4
:10237000A3891D044FF0320306D503EBC000B0FB68
:10238000F2F000F0070005E003EB0010B0FBF2F004
:1023900000F00F00084320817FBD4FF4165101600B
:1023A00000218180C18001810C224281818170479E
:1023B00010B5028A4C8822F470630A8822438C8804
:1023C000C9880C4322431A43028210BD00210180B8
:1023D00041808180C18070470029818902D041F409
:1023E000005101E021F4005181817047028B02F419
:1023F0007F420283028B0A4302837047002981894E
:1024000002D041F4004101E0C1F30E018181704727
:102410000029818A02D041F4006101E021F40061C9
:1024200081827047C1F30801818070478088C0F3C2
:1024300008007047028A22F00F020282028A0A43D1
:10244000028270470029818902D041F0020101E037
:1024500021F0020181817047828922F40062828129
:1024600082890A4382817047028A22F02002028216
:10247000028A0A43028270470029018A02D041F48D
:10248000804101E021F4804101827047818941F05F
:102490000101818170470029818A02D041F0080141
:1024A00001E021F0080181827047028BD2B20283E1
:1024B000028B42EA0121018370470029818A02D000
:1024C00041F0200101E021F02001818270470029C4
:1024D000818A02D041F0100101E021F010018182D7
:1024E0007047828A22F004028282828A0A438282B0
:1024F00070470029818A02D041F0020101E021F0F9
:10250000020181827047002A828A01D00A4300E0DA
:102510008A438282704710B5C1F3421301F01F0451
:102520000121A140012B07D0022B07D01430002A33
:10253000026805D00A4304E00C30F8E71030F6E7F3
:102540008A43026010BD0246002012880A4200D071
:1025500001207047C9430180704770B501F01F0525
:1025600001260024C1F3421306FA05F2012B0FD015
:10257000022B0FD0838A4FEA11210088134206FAFA
:1025800001F600EA060001D000B10124204670BD2A
:102590008389F0E7038AEEE70A0A01219140C943E3
:1025A0000180704700100140004400400048004096
:1025B000004C0040005000400014014000780040F2
:1025C000007C004010B501218C032046FEF713F873
:1025D0002046BDE810400021FEF70DB81449086000
:1025E000704714490862704710B58A0721F0030448
:1025F0001149120F21440F23D1F8084893409C43FE
:10260000C1F80848D1F8083890400343C1F80838A9
:1026100010BD0849C1F8DC007047084908607047E0
:102620000349002020310968C90500D50120704701
:1026300000380140000027420030014000042742DA
:10264000A3490844C0F38F2070472DE9F04F9A4604
:10265000DDE909B889460346FFF7F2FFC5B200205D
:102660004FF0030E0121814011EA090F28D0994E45
:1026700036F815400C4326F81540DF6844000EFA82
:1026800004F6B7430BFA04FC47EA0C07DF601F6847
:1026900002FA04FCB74347EA0C071F60012A01D085
:1026A000022A0DD15F6889B28F430AFA00F189B21C
:1026B0000F435F60996808FA04F4B14321439960BD
:1026C000401CC0B21028CDD3BDE8F08F00B5FFF795
:1026D000B7FF01218140804802681143016000BDBD
:1026E000FCB51646DDE907C50C00074608D0FFF724
:1026F000EDFFCDE900C5324621463846FFF7A5FF7C
:10270000FCBD2DE9FC4F9946DDE90BB792460D0063
:10271000064622D0FFF7DAFF002201214FF00F0C0E
:1027200001FA02F028420DD0D00806EB8003186AA7
:102730005407E40E0CFA04F820EA080007FA04F43F
:1027400020431862521C102AEAD3CDE9009B53465D
:10275000022229463046FFF778FFBDE8FC8FF0B52E
:102760000E460546FFF76CFF00225A49C4B24FF0EF
:10277000010C03270CFA02F333420CD028684FEA0D
:10278000420E07FA0EFE40EA0E00286031F81400EF
:10279000984321F81400521CD2B2102AEAD3F0BD9B
:1027A000F0B500220125032605FA02F30B4205D0FD
:1027B0000468570006FA07F39C430460521CD2B227
:1027C000102AF1D3F0BDF0B500220127032607FA45
:1027D00002F33C460B4208D00568530006FA03FC9E
:1027E00025EA0C059C4025430560521CD2B2102AF4
:1027F000EDD3F0BDF0B500220125032605FA02F362
:102800000B4205D00468570006FA07F31C43046026
:10281000521CD2B2102AF1D3F0BDF0B5002201262D
:102820000324022706FA02F30B4209D0056853007D
:1028300004FA03FC25EA0C0507FA03F31D430560BF
:10284000521CD2B2102AEDD3F0BDF0B500230127FF
:10285000032507FA03F40C4209D0C6685C0005FAA8
:1028600004FC26EA0C0602FA04F42643C6605B1C4C
:10287000DBB2102BEDD3F0BD41F48032C261C161F7
:10288000C261C169C0697047002102E0491C89B278
:1028900040080128FAD80846704700B5FFF7D0FE77
:1028A000012181400C4802688A43026000BD00B5E6
:1028B000FFF7C6FE074931F8100000BD00B5FFF76D
:1028C000BFFE044931F81000C04380B200BD0000D3
:1028D0000000FEBFA00000203038024010B50121EA
:1028E0000820FDF74CFE41483F49414C41605421CE
:1028F000018000210181418001462046FFF756F802
:102900002046BDE810400121FFF7C8B82DE9FF4778
:102910000024384F8A46814603250294234601222B
:10292000022138460394CDE90045FFF7D9FE022184
:102930003846FDF7B0FF44F2506000F04EF8022137
:102940003846FDF7A6FF282000F047F800231A4676
:1029500002213846CDE90045FFF7C2FE0221384684
:10296000FDF783FF0028F9D002213846FDF77DFFEF
:102970000028F9D1DFF87880002402AE002502217A
:102980003846FDF772FF0028F9D000214046FFF7D6
:102990004FF802213846FDF768FF0028F9D140467C
:1029A000FFF74AF8C0B21E28305D4FEA400001D35D
:1029B0003055401C6D1CEDB23055082DDFD3641C22
:1029C000E4B2052CDAD39DF8081089F800109DF8C0
:1029D0000A108AF80010BDE8FF87074909684843D4
:1029E000401EFDD270470000FFBC0105B80000206A
:1029F000000C0040000C0240640000207CB504463E
:102A0000012015460E4600900246019000232946FB
:102A10003046FFF765FE2660A5807CBD10B50446F4
:102A2000808821684883A1882068FFF7CCFE4FF496
:102A3000F07000F090F9A1882068FFF7B1FE462001
:102A400000F089F920680069A188084201D00124BA
:102A500000E000244FF4CD7000F07DF9204610BD59
:102A600010B504468288006800294283A188206846
:102A70000AD0FFF7A8FE0A2000F06DF9A1882068AF
:102A8000FFF78EFE372009E0FFF79DFE412000F0A2
:102A900062F9A1882068FFF783FE052000F05BF94A
:102AA000A1882068BDE81040FFF77ABE70B50446E3
:102AB0008088216800254883A1882068FFF783FE6D
:102AC000032000F048F9A1882068FFF769FE0A207A
:102AD00000F041F920680069A188084200D0012572
:102AE000322000F038F9284670BD70B50D46064614
:102AF000082405E005F001013046FFF7B1FF6D083D
:102B0000641EE4B2F6D270BD70B5064608240020FB
:102B100006E045083046FFF7C9FF45EAC010C0B2DD
:102B2000641EE4B2F5D270BD2DE9F05F4FF00008ED
:102B300004460127007A894646463D46C246C346BA
:102B400090BB2046FFF76AFF40B184F806B084F8D6
:102B500008B084F807B00020BDE8F09F4946204641
:102B6000FFF7C3FF2046FFF7A1FF81462046FFF78E
:102B70009DFF4946B9F1010F01D1012831D08145AE
:102B80000FD1A079B84205D904EB0600407A28425B
:102B900001D103E002D14FF0010101E04FF000014B
:102BA00019B1012914D005E02BE0B846092F01D254
:102BB00084F80780A019427AAA4342722046FFF7A0
:102BC0004FFF7F1C6800FFB210F0FF0504D006E045
:102BD000A019427A2A43F0E7761CF6B20125082EA6
:102BE000C0D3412F08D35FEA0800A07101D10120B2
:102BF00020724FF0010A02E0BAF1000F01D0607AB2
:102C000038B984F806B084F808B084F807B04FF0FB
:102C1000000A5046A0E7002181710172C17170471E
:102C200010B50246FFF7F7FFBDE81040F02110464F
:102C30007AE7F02178E72DE9FC41044600206D4653
:102C40002118497A2954401C0828F9DB94F8068099
:102C5000277AE6794020A07100202072F0212046DA
:102C6000FFF762FF60B10121002023182A5C5B7A24
:102C70009A4201D0012104E0401C0828F5DB00E065
:102C80000021002023182A5C401C5A720828F9DB16
:102C900084F806802772E6710846BDE8FC8141721F
:102CA000012100224318491CC9B25A720829F9D3DC
:102CB00040218171C27102727047C1790022817115
:102CC000C271002901D10121017270470844407A84
:102CD000704770B50D4606465521FFF706FF0024E4
:102CE0003046295DFFF701FF641CE4B2082CF7D3DE
:102CF00070BD70B50D4606465521FFF7F6FE00245F
:102D00003046295DFFF7F1FE641CE4B2082CF7D3CE
:102D100070BD002283185B7A8B54521CD2B2082AF1
:102D2000F8D3704730B50446002010E014F8013B9A
:102D3000082280EA030515F0010F4FEA500001D088
:102D400080F08C005B08521E12F0FF02F1D1491E88
:102D5000C9B2EBD230BD034909684843401EFDD2D9
:102D600070470000640000201CB502004FF0030013
:102D700001D002201CBD0322092359B10129F9D138
:102D8000CDE9002300231A464902F948FFF7B9FCB0
:102D900000201CBDCDE9002300231A468021F54800
:102DA000F4E71CB502004FF0030001D002201CBD67
:102DB0000322092359B10129F9D1CDE900230023C8
:102DC0001A460902EA48FFF79CFC00201CBDCDE929
:102DD000002300231A460221E648F4E77CB50200EE
:102DE0004FF00300E44CE54D03464FF0090603D0D5
:102DF000012A15D002207CBD39B10129FBD1CDE9D2
:102E0000003600231A46402112E0CDE900360023A7
:102E10001A464FF4804113E0FFF773FC00207CBD9D
:102E200041B10129FBD1CDE9003600231A46490200
:102E30002846F1E7CDE9003600231A464FF4004159
:102E40002046E9E71CB502004FF0030001D0022044
:102E50001CBD032259B10129FAD10092002301922D
:102E60001A468021C248FFF74CFC00201CBD00928E
:102E7000002301921A464FF40071BF48F3E71CB5D6
:102E800002004FF0030001D002201CBD032259B103
:102E90000129FAD10092002301921A464021B44838
:102EA000FFF72FFC00201CBD0092002301921A4660
:102EB0004FF48071B048F3E77CB502004FF0030097
:102EC000AC4CAF4D034603D0012A14D002207CBD88
:102ED00039B10129FBD10093019300231A46202127
:102EE00011E00093019300231A46042112E0FFF73A
:102EF00008FC00207CBD41B10129FBD10093019366
:102F000000231A4640212846F1E70093019300234D
:102F10001A4608212046EAE77CB502004FF003007C
:102F2000984C994D034603D0012A14D002207CBD51
:102F300039B10129FBD10093019300231A462021C6
:102F400011E00093019300231A46402112E0FFF79D
:102F5000D8FB00207CBD41B10129FBD10093019336
:102F600000231A4640212846F1E7009301930023ED
:102F70001A4680212046EAE77CB502004FF00300A4
:102F80007C4C7E4D03464FF0020603D0012A14D03C
:102F900002207CBD39B10129FBD1CDE900360023E7
:102FA0001A46890211E0CDE9003600231A460121B4
:102FB00012E0FFF7A6FB00207CBD41B10129FBD147
:102FC000CDE9003600231A46C9022846F1E7CDE9CB
:102FD000003600231A4602212046EAE77CB50200AB
:102FE0004FF00300644C694D03464FF0020603D0D6
:102FF000012A14D002207CBD39B10129FBD1CDE9D1
:10300000003600231A46090311E0CDE900360023FB
:103010001A46402112E0FFF774FB00207CBD41B14D
:103020000129FBD1CDE9003600231A464903284681
:10303000F1E7CDE9003600231A4680212046EAE771
:103040002DE9FC4107004FF003004A4C4A4D4D4E1C
:1030500002464FF0020304D0012F1DD00220BDE82C
:10306000FC8149B101290DD00229F8D1CDE9002315
:1030700000231A46490219E0CDE9002300231A462D
:1030800040211AE0CDE9002300231A4610211BE05D
:10309000FFF737FB0020E2E751B101290FD00229E9
:1030A000DDD1CDE9002300231A4680213046EFE729
:1030B000CDE9002300231A4680212046E8E7CDE928
:1030C000002300231A4620212846E1E77CB50400AE
:1030D0004FF00300274D02464FF0010303D0012CAF
:1030E0001CD002207CBD49B101290DD00229F9D1A3
:1030F000CDE9002300231A4689030AE0CDE9002325
:1031000000231A46012104E0CDE9002300231A46DA
:1031100020212846FFF7F5FA00207CBD41B10129A6
:10312000FBD1CDE9002300231A4608211248F1E71C
:10313000CDE9002300231A460221EAE72DE9FC41EC
:1031400002004FF003000B4C0D4D03464FF00107FA
:103150004FF4007603D0012A25D002207FE7B9B1D1
:103160000129FBD1CDE9003700231A46314622E080
:10317000001402400000024000040240001C024013
:10318000001002400008024000200240000C0240F3
:10319000CDE9003700231A464FF4807112E0FFF7A3
:1031A000B0FA00205BE741B10129D7D1CDE9003762
:1031B00000231A4689022846F1E7CDE900370023AB
:1031C0001A4631462046EAE70B468068C9498842DC
:1031D00002D111461846B1E7B0F1804F05D0C6497B
:1031E000884205D1114618462AE7114618466DE770
:1031F000C249884202D111461846EFE6C0498842CA
:1032000002D111461846B7E6BE49884202D111469E
:10321000184681E6BC49884202D1114618464BE661
:10322000BA49884202D11146184628E6B849884270
:1032300002D11146184605E6B649884202D1114628
:103240001846CBE5B449884202D111461846A8E594
:10325000B249884202D11146184685E501207047DF
:103260002DE9F0410C462DED028B88B0AC49109F42
:10327000B0EE408A98461546884202D0A949884255
:1032800005D1012008B0BDEC028BBDE8F08104F14E
:103290000C010E46A06000F0D9FD18EE100A01F0F6
:1032A000A0FE41EC100B304600F013FEA06800F0C9
:1032B00065FE03A8FEF7AAFB2069B0F5803F01D1A7
:1032C0004FF6FF700490A08B03A9401EADF80C00D0
:1032D000A068FEF76BFB94480221002601718671FD
:1032E000C67103214171424629462046FFF76CFF13
:1032F0000028C7D18C4A84F82C60103A4FF001089E
:10330000118894F82C0008FA00F30B4205D1C3B2DF
:1033100008FA03F00843108005E0401CC0B284F8AE
:103320002C001028EDD38DF818708DF8198094F8C2
:103330002C008DF81A008DF81B8006A8FCF745FFBD
:1033400045B30420ADF80000ADF80480ADF802608C
:10335000ADF80660ADF808606946A068FEF73AFE71
:10336000A068D5B16021FEF7E8FE0421A068FEF751
:1033700030FF8021A068FEF734FF0121A068FEF72E
:103380008DFBA0684FF001024DB10421FEF797FEBE
:10339000002077E7ADF80060D6E75021E3E702218F
:1033A000F4E790ED090A80ED000A90ED0A0A80ED3D
:1033B000010A9FED5E0A80ED090A80ED0A0A0020ED
:1033C000704770B504462DED028B02218068FEF730
:1033D0008AFEDFED578A9FED558A534D103DD0B3DD
:1033E0000221A068FEF78BFEA068FEF727FE00EE24
:1033F000100AB8EE400A85ED010A95ED010AB5EE16
:10340000C00AF1EE10FA27D0A068FEF719FE00EE10
:10341000100AD5ED010AB8EE400A20EE280A80EE27
:10342000201A85ED021A94ED030A95ED011AF8EEC3
:10343000400A94ED070AB8EE400A20EE010A80EE39
:10344000801A85ED031A95ED020A84ED0A0A95EDBE
:10345000030A84ED090A03E085ED028A85ED038AFB
:103460000421A068FEF73FFED0B30421A068FEF758
:1034700046FEA068FEF7E4FD00EE100AB8EE400A32
:1034800085ED010A95ED010AB5EEC00AF1EE10FADC
:1034900027D0A068FEF7D2FD00EE100AD5ED010A94
:1034A000B8EE400A20EE280A80EE201A85ED021AB6
:1034B00094ED030A95ED011AF8EE400A94ED070A1F
:1034C000B8EE400A20EE010A80EE801A85ED031A5C
:1034D00095ED020A84ED0A0A95ED030A84ED090AC6
:1034E00003E085ED028A85ED038A0020BDEC028BA6
:1034F00070BD0000000001400004004000080040D2
:10350000000C004000040140004001400044014024
:103510000048014000180040001C0040002000400E
:1035200000100040001400402000002000000000B7
:103530000000C8422DE9F34F81B090F80690DDF805
:1035400008C090F800A006794579447A037AC279D8
:10355000BCF1010F23D0DC4662F31F616AF3070C54
:1035600063F3070765F30F21E34664F30F2766F360
:103570000701CC46C7F3072A6CF31741BAF1630F72
:103580007ED8FFB25FEA070E7AD0BEF10C0F77D873
:103590000F0E00977ED05FEA8A7747D04FE04FEA60
:1035A000121C02F00F080CEB8C0C08EB4C0C6CF3AB
:1035B0001F614FEA131C03F00F080CEB8C0C08EB97
:1035C0004C0C6CF307074FEA141C04F00F080CEBCB
:1035D0008C0C08EB4C0C6CF30F274FEA151C05F014
:1035E0000F080CEB8C0C08EB4C0C6CF30F214FEA22
:1035F000161C06F00F080CEB8C0C08EB4C0C6CF353
:1036000007014FEA1A1C0AF00F080CEB8C0C08EBB0
:103610004C08DC4668F3070CE3464FEA191C09F036
:103620000F080CEB8C0C08EB4C0CA3E70AF5FA67BF
:103630004FF0640CB7FBFCF80CFB18776FBB0AF576
:10364000FA674FF4C87CB7FBFCF80CFB187727B37C
:10365000002707EB47074FF0FF3CDFF83C840CEBFB
:10366000870C0EEB080717F80CC0009FBC4511D360
:10367000C1F30727172F0DD8CFB23B2F0AD800E090
:1036800008E00BF0FF073B2F04D8C1F3074109B155
:10369000072904D90120BDE8FE8F0127D9E7FE499B
:1036A00014390D704E7000788870081D00218270EA
:1036B0004370C47080F80090F84801601F21416099
:1036C00040F2FF318160FDF758FC0298F249012871
:1036D000A1F1140112D00020FDF7B3FCEE49002047
:1036E0001039FDF728FDEC481838006820B144F285
:1036F00021311320FEF704F80020CCE70120FDF76C
:10370000A0FCE54910390120EBE710B510B1012804
:103710000BD016E00120FCF717FE6120FCF7D0FD6E
:103720000028FAD04FF4007009E00120FCF700FEF9
:103730004120FCF7C5FD0028FAD04FF48070FCF75B
:10374000AEFE0120FCF7C0FE0020FDF742FCFDF7B5
:1037500079FB0120FDF73DFCBDE8104041F234212A
:103760001320FDF7CDBFF0B5427A002340F2B271CD
:1037700002F5FA628A4201D20020F0BD6425AE0053
:103780004FF4B77740F26D1C0FE08C0704D1B1FB0A
:10379000F5F405FB14147CB9B1FBF6F406FB141424
:1037A00054B16446491C234489B29142EDD30121AE
:1037B000DFF8E4C2077A18E03C46F3E7940704D147
:1037C000B2FBF5F405FB14242CBBB2FBF6F406FBAC
:1037D000142404B3002404EB44040CEB84040C44D0
:1037E000491C14F8014C89B223448F42E6D8C179B0
:1037F0005B1ECA18AA494A434179C1EB4113C3EB86
:10380000012102EB011201790078C1EB011102EBF9
:1038100081010844F0BD0124DDE770B50D009E492B
:103820000446A1F1140122D00120FDF75AFC9A4868
:10383000143801786171417821718078207099483D
:1038400000689549608010399DB10120FDF7C1FCE9
:1038500091481038C1786172417821728178E171A4
:103860000078A0712046FFF77EFFE06070BD002069
:10387000DBE70020EAE72DE9FF47074601210807BB
:10388000FCF77DFE0120FDF75FFA1320FDF740FFF6
:10389000814D44F22131DFF81082183D4FF4804908
:1038A0004FF48004884216D1296019E00020FDF70A
:1038B00090FBFDF7C7FA0120FDF78BFB4846FDF7AB
:1038C000C0FFC8F8004000216846FFF7A6FF28683F
:1038D00004B0BDE8F08741F23426B04206D12E6034
:1038E000002FE3D10020FFF710FFDFE70024384668
:1038F0002C60FFF70AFF01208DF807008DF8060005
:103900008DF808008DF805408DF809408DF80440C9
:103910008DF8004000216846FFF70CFE00202E6065
:10392000D6E77FB500210B468DF807106FF02F0208
:103930000AE09DF80750491C05EB850502EB45059B
:103940002C448DF80740C9B2445CA4F13005092D20
:10395000EFD9491CC9B28DF808300AE09DF808502B
:10396000491C05EB850502EB45052C448DF8084004
:10397000C9B2445CA4F13005092DEFD9491CC9B284
:103980008DF809300AE09DF80950491C05EB8505C2
:1039900002EB45052C448DF80940C9B2445CA4F102
:1039A0003005092DEFD9491CC9B28DF806300AE05F
:1039B0009DF80650491C05EB850502EB45052C4496
:1039C0008DF80640C9B2445CA4F13005092DEFD949
:1039D000491CC9B28DF805300AE09DF80550491C14
:1039E00005EB850502EB45052C448DF80540C9B271
:1039F000445CA4F13005092DEFD9491CC9B28DF8FA
:103A000004300AE09DF80450491C05EB850502EBE3
:103A100045052C448DF80440C9B2445CA4F130053E
:103A2000092DEFD9491CC9B28DF800300AE09DF884
:103A30000040491C04EB840402EB440423448DF849
:103A40000030C9B2435CA3F13004092CEFD9002146
:103A50006846FFF76FFD04B070BD08B10C2801D9AE
:103A6000002070478A0701F5FA6105D16422B1FB95
:103A7000F2F302FB1312E2B94FF4C872B1FBF2F396
:103A800002FB1311A9B10021034A01EB410102EB32
:103A9000810108440AE0000040000020C40000202A
:103AA0008051010028280040143C014010F8010C0E
:103AB00070470121E8E7810700F5FA6005D164212C
:103AC000B0FBF1F201FB120149B94FF4C871B0FB30
:103AD000F1F201FB120010B140F26D1070474FF48B
:103AE000B77070472DE9F0470446D3484FF480087B
:103AF000C0F800800020FDF78EFC4FF4804A0021C2
:103B00005046FDF752FEDFF834930321002689F872
:103B10000010042189F8011089F8026089F8036017
:103B20004846FCF752FB09F104070820C7F800805B
:103B30003E717871BE713846FDF798F8002C4BD075
:103B4000012689F80360381FFCF73FFBBE71384639
:103B5000FDF78CF80020FDF75EFC012C12D0022C42
:103B600012D0032C12D0042C13D0052C14D0062C08
:103B700015D0072C16D0082C17D0092C18D00A2CD9
:103B800019D01AE0AE4D18E0AE4D16E04EF6FF75B6
:103B900013E049F6FF7510E044F6FF750DE041F6BD
:103BA000FF750AE040F6FF7507E040F2FF7504E09C
:103BB00040F2FF3501E040F2FF150120FDF70AFC5D
:103BC0002846FDF718FC01215046FDF7EEFDBDE843
:103BD000F0470120FDF71FBC7BE63C22B1FBF2F36E
:103BE000F0B502FB1313C160B1FBF2F10370B1FB3E
:103BF000F2F302FB1313B1FBF2F103711822B1FBD4
:103C0000F2F302FB1313B1FBF2F14371CA1C072359
:103C1000B2FBF3F403FB1422521C4FF4B77482710D
:103C2000A61E642340F2B2729D00970704D1B2FB36
:103C3000F3F703FB17275FB9B2FBF5F705FB17276F
:103C400037B1B14209D9A1F26D11521C92B2ECE721
:103C5000A14202D3A1F5B771F7E7A2F5FA64447265
:103C60000024764F04720C3707F10C06940704D138
:103C7000B2FBF3F403FB1424ACB9B2FBF5F405FB7F
:103C8000142484B1047A3C5D8C4206D8091B047A62
:103C9000641CE4B204720C2CE8D3027A521C027247
:103CA000491CC171F0BD047AA45DEDE710B510B1F7
:103CB000012817D108E000214FF48070FDF744FB84
:103CC00000214FF4805407E000214FF40070FDF70D
:103CD0003BFB00214FF400542046FDF766FD2046D3
:103CE000FDF78CFD54484FF4003101605348012426
:103CF000001D016000210171082141718471FCF7F0
:103D0000B5FF4E4829210170042141708470C470B0
:103D1000BDE81040FCF759BA7FB516460C4605467B
:103D2000FFF7C4FFE0788DF80000A0788DF801005F
:103D300060788DF802004FF000400190207801215A
:103D4000F0B100200290207918B31F2800D91F205D
:103D50008DF80C0005B3012D11D16C026A46214685
:103D60003046FDF757FA01212046FDF7EDFA012113
:103D70004C032046FDF719FD2046FDF73FFD7FBDB2
:103D80004FF080400290207918B10728E0D9072031
:103D9000DEE78DF80C10DDE74FF480746A462146AB
:103DA0003046FDF737FA01212046FDF7CDFA012113
:103DB0000C03DEE7122804D8234A02EB0010C0F8F7
:103DC00050187047122801D9002070471E4901EB96
:103DD0000010D0F85008704770477047704710B512
:103DE0004FF480442046FDF715FD20B12046FDF735
:103DF00028FDFFF7F1FF10494FF48000086010BD67
:103E000010B54FF480542046FDF704FD20B1204644
:103E1000FDF717FDFFF7E1FF4FF400542046FDF7D3
:103E2000F9FC20B12046FDF70CFDFFF7D7FF024952
:103E30004FF40030086010BD143C014034000020F5
:103E4000FFBF0300FFDF0100002000407FB50446F4
:103E50000D466846FCF7E0FA4FF6FF70A860B4F133
:103E6000804F02D0AC498C4205D1039828604FF0B6
:103E7000FF30686028E0A9498C420BD0A8498C42E9
:103E800008D0A8498C4205D0A7498C4202D0A74946
:103E90008C4201D1019915E0A5498C4211D0A54968
:103EA0008C420ED0A4498C420BD0A4498C4208D03D
:103EB000A3498C4205D0A3498C4202D0A2498C422E
:103EC00005D10399C5E90010002004B070BD02209F
:103ED000FBE72DE9F04704462DED028BB0EE408A5A
:103EE000F0EE608A0025006801F055F853EC182BBD
:103EF00001F08AF807D22561E56003206561BDEC19
:103F0000028BBDE8F0879FED910B51EC180B53EC41
:103F1000102B01F079F803D12561E560656124E09B
:103F20006068B0F5803F01D2401C60602561D4E933
:103F300001862768A946761C6D1CB7FBF5F001F0D9
:103F40002AF853EC182B00F0B7FF01F031F8C4E960
:103F50000305404501D9B542EED9B54207D9C4F8A9
:103F60001090C4F80C90C4F814900420C7E751ECEA
:103F7000180B01F01DF860610020C0E76749754A21
:103F8000884203D1116841F0010111607149091F94
:103F9000B0F1804F55D0664B984203D10B6843F087
:103FA00002030B60634B984203D10B6843F0040398
:103FB0000B60594B984203D10B6843F008030B6028
:103FC0005D4B984203D10B6843F010030B605B4BD1
:103FD000984203D10B6843F020030B60504B98428A
:103FE00003D1136843F0020313604E4B984203D190
:103FF000136843F4803313604B4B984203D113682A
:1040000043F400331360494B984203D1136843F4DF
:10401000802313604A4A904203D10A6842F040026A
:104020000A60484A904203D10A6842F080020A605E
:10403000454A904203D1086840F48070086000202F
:104040007047086840F00100F8E73449414A884267
:1040500003D1116821F0010111603E49091FB0F13F
:10406000804F55D0324B984203D10B6823F00203A6
:104070000B60304B984203D10B6823F004030B60B4
:10408000254B984203D10B6823F008030B602A4BA1
:10409000984203D10B6823F010030B60274B984222
:1040A00003D10B6823F020030B601D4B984203D112
:1040B000136823F0020313601A4B984203D113686C
:1040C00023F480331360184B984203D1136823F410
:1040D00000331360154B984203D1136823F48023F7
:1040E0001360174A904203D10A6822F040020A6026
:1040F000144A904203D10A6822F080020A60124AF0
:10410000904203D1086820F4807008600020704756
:10411000086820F00100F8E7000C004000000140B2
:1041200000040140004001400044014000480140BB
:10413000000400400008004000100040001400404F
:1041400000180040001C004000200040000000005B
:104150000000000044380240234810B54168491C63
:104160004160816811B18168491E8160AFF30080B0
:1041700010BD10B51C4C2078002821D10120FCF77F
:1041800099F8FCF7B4F80028FBD0184801684FF400
:104190007A70B1FBF0F0401EB0F1807F11D24FF089
:1041A000E0225061124BF02083F8140D0020906142
:1041B000072010610F48B1FBF0F0E0600120207093
:1041C00010BDFEE708480078002805D04FF0E02039
:1041D000016941F00201016170474FF0E02001697F
:1041E00021F00201016170475800002068000020A2
:1041F0000FE000E0C0C62D0010B58AB004460020D4
:1042000001218DF81410C34A8DF80500C2490490AD
:10421000039002908DF80400944203D10A6842F49E
:1042200080720CE0BD4A944203D10A6842F40072E5
:1042300005E0BB4A944204D10A6842F480620A60F5
:104240000090089006904FF4803007904FF4407033
:10425000099006A8FCF789FB69462046FCF75AFB43
:10426000A06840F00100A0600AB010BD1CB5012399
:104270000222CDE9002300230322FEF731FA1CBD00
:10428000A449884202D0A549884202D12021A548EC
:1042900004E0A349884202D12021A348E6E7704701
:1042A00010B504469B48844202D09C48844203D106
:1042B00010219C48FFF7DAFF9948844204D1BDE8F9
:1042C000104010219848D1E710BD08219548CDE74E
:1042D00004219448CAE702219248C7E70121914886
:1042E000C4E710B504468B48844202D08B48844210
:1042F00003D102218D48FFF7B9FF8948844204D1D8
:10430000BDE8104008218848B0E710BD10B504464C
:104310008048844202D08148844203D101218348ED
:10432000FFF7A4FF7E48844204D10115BDE8104088
:104330007D489BE710BD10B504467648844202D004
:104340007648844203D180217948FFF78FFF744873
:10435000844204D14115BDE81040734886E710BD82
:1043600010B504466B48844202D06C48844203D1A5
:1043700040216F48FFF77AFF6948844204D18115D4
:10438000BDE81040684871E710BD10B504466148AB
:10439000844202D06148844203D120216448FFF75F
:1043A00065FF5F48844204D1BDE8104080215E482B
:1043B0005CE710BD10B504465648844202D0574809
:1043C000844203D110215A48FFF750FF54488442D9
:1043D00004D1BDE810404021534847E710BD0821F3
:1043E000534843E70421524840E7022150483DE743
:1043F00001214F483AE710B504464D48F9B101296B
:104400001FD002291FD003291FD0042921D005293C
:1044100023D0062925D0072927D0082929D0092902
:104420002BD040480A290AD00B290AD00C290AD0DF
:104430000D290AD00E2924D00F2926D028E00121E9
:1044400004E0022102E0042100E00821FFF70EFF52
:104450001EE02046FFF7AEFF1AE02046FFF795FF6B
:1044600016E02046FFF77CFF12E02046FFF763FFCF
:104470000EE02046FFF74AFF0AE02046FFF731FF33
:1044800006E02046FFF70CFF02E02046FFF7F8FEAB
:104490002046BDE81040AFE670B50123054640F662
:1044A000FF741A46FCF7ABFAA86840F08040A86099
:1044B00002E02046641E04D328688007F9D5E86C22
:1044C00080B270BD1348D0F8041341F48001C0F8E5
:1044D000041370470F48D0F8041321F48001C0F88A
:1044E0000413704710B50446052301221221FCF77E
:1044F00086FAA06840F08040A06020688007FCD564
:10450000E06C41F6C811484340F6FF71B0FBF1F092
:1045100080B210BD0020014044380240002101401B
:104520000022014000080240001402400004024042
:10453000000002400CB50022544900920192086824
:1045400040F4803008604FF4A043086800F4003065
:1045500001900098401C0090019810B90098984272
:10456000F3D10868800334D50120019047484030DA
:10457000026842F0805202604548026842F44042BC
:1045800002604248083002680260026842F4004259
:104590000260026842F4A0520260031F3D4A1A60A2
:1045A0000A6842F080720A600A689201FCD53A49B2
:1045B00040F205720A60016821F0030101600168A0
:1045C00041F0020101600168C1F381010229FAD1C1
:1045D0000CBD01920CBD314810B5016841F4700169
:1045E00001602A48016841F001010160274A002169
:1045F0000832116002682A4B1A400260031D294AE2
:104600001A60026822F48022026020480C300160A7
:10461000FFF790FF21494FF000608039086010BD1E
:1046200070B51A4D083528681F4B204910F00C0052
:1046300004D05E10042803D0082803D00B601BE0D0
:104640000E6019E0114A121D1068C0F38054106802
:1046500000F03F0014B1B6FBF0F001E0B3FBF0F066
:1046600013681268C3F388135843C2F30142521C03
:104670005200B0FBF2F0086028680C4AC0F3031047
:10468000121D105C0A68C2400A6070BD003802400A
:104690000070004008544007003C024088ED00E0F4
:1046A000FFFFF6FE103000240024F4006800002014
:1046B00008B5FFF75EFD00F0B1F900F010FA012235
:1046C0008A498B48FEF79AF9FEF708F91C20012366
:1046D00087490090B7EE000A1A4630399807FEF76E
:1046E000BFFD00F057F983A000F086F94FF4FA708F
:1046F00000F0F1F883A000F07FF941F2883000F07B
:10470000EAF800F01FFB7A4887A1A03800F0B9FB57
:104710000028F8D085A000F06FF97548A03800F0A7
:10472000BEFB844B1A1F111F00F001FA82A000F09B
:1047300063F90020FFF79FF87E4C6D4D0C3C14355B
:1047400078B920796871207A2871207B287011202F
:10475000687201202872E871A87100212846FEF7CE
:10476000E9FE7748E9684FF416730844B0FBF3F2AA
:1047700003FB1202734E52B1B0FBF3F2E261C2EBE3
:10478000021202EB820206EBC202226100E021610A
:104790004FF46162B0FBF2F702FB17075FB1B0FBA9
:1047A000F2F2C2EB4217E261C7EB0222664F07EB5F
:1047B0000212626100E06161B0FBF3F203FB1202DE
:1047C00052B1B0FBF3F2E261C2EB021202EB8202E1
:1047D00006EBC202226100E021610522B0FBF2F388
:1047E00002FB130343B1B0FBF2F0E061574900EB69
:1047F00080000844A06100E0A1614FF47A763C4853
:1048000000211430FFF709F8394851A19638EA68B9
:1048100000F0DEFE3648963800F0EEF8E968A06950
:10482000814204D1491D4DA0A16100F0E5F8304658
:1048300000F051F8E3E710B5494C40F2255120460D
:10484000FDF78BFE60B12046FDF7F0FDC3B20D2BE6
:1048500008D00A2B06D0434A43A1104600F0B8FE08
:1048600031A010BD3F4800F005FB3E49024601F172
:10487000640000F0DBFA3B4800F0FCFA01463948DE
:1048800000F0EDFA3748643010BD10B5FFF7D3FFE4
:10489000044600F0EFFA0A280AD12078312807D11F
:1048A00022461348BDE8104031A1A03800F090BE68
:1048B00010BD0F483038FEF784BD10B50120FCF75D
:1048C00018FA012806D11B490C390860BDE81040D0
:1048D000FCF725BA10BD274908B50A6800920A6896
:1048E000009BD21A8242FAD308BD0000000C02409D
:1048F0003802002041542B43574D4F44453D330D62
:104900000A00000041542B43574A41503D22646C39
:10491000696E6B2D636367222C2263636763636731
:1049200037373136220D0A000000000034390D0AF5
:10493000000000008800002035330D0A0000000050
:1049400080B997A7D84868589054685885466858E1
:1049500054696D653A2025750D0A0000430D0A0063
:1049600000480040D00000202573256300000000AF
:10497000257300005C0000207047FEE7FEE7FEE7BD
:10498000FEE7704770477047704710B5FFF7E4FBCC
:1049900010BD000030B5012185B00846FBF7D1FD00
:1049A00001218803FBF7F5FD00258DF81050012447
:1049B0008DF8135003A96B480394FBF705FF002102
:1049C0000846FDF711FE8DF8045008208DF805000B
:1049D00000948DF806406846FCF748F906208DF8EB
:1049E00008008DF809408DF80A408DF80B4002A8A8
:1049F000FBF7EBFB05B030BD70B504465A4D09E03E
:104A00002846641CFDF70EFD40212846FDF79BFD5E
:104A10000028F9D021780029F2D170BDF0B587B017
:104A200001210420FBF78DFD01218804FBF7A7FD80
:104A30004E4F07220A213846FBF73AFF07220B2187
:104A40003846FBF735FF022500248DF80640012685
:104A50008DF8076068028DF8045000908DF80550BD
:104A600069463846FBF7B0FEA80200908DF8045066
:104A700069463846FBF7A8FE4FF4E130ADF80C402C
:104A80000290ADF80E40ADF81040ADF814400C2087
:104A9000354CADF8120002A92046FDF72CFC01228E
:104AA00040F225512046FDF736FD27218DF81810DC
:104AB0008DF819508DF81A608DF81B6006A8FBF769
:104AC00084FB40212046FDF745FD01212046FDF7EE
:104AD00083FC27498020C1F8000107B0F0BD10B564
:104AE000244C01212046FFF786FC02212046FFF7D7
:104AF00082FC03212046FFF77EFC04212046FFF7BD
:104B00007AFC05212046FFF776FC06212046FFF7B8
:104B100072FC07212046FFF76EFC08212046FFF7B4
:104B20006AFC2046BDE810400921FFF764BC30B59F
:104B3000114C20443C2490FBF4F504FB15051D604A
:104B40004FF4616390FBF3F503FB150595FBF4F45B
:104B500014600A4A90FBF2F402FB140090FBF3F09D
:104B6000086030BD000002400048004000080240DC
:104B700004E000E00020014080B997A780510100C7
:104B800000B599B080A0FFF737FF322000F0F2F8AF
:104B9000A92287A1684600F01BFD6846FFF72CFF9D
:104BA000322000F0E7F88648FFF726FF85A0FFF7E0
:104BB00023FF86A0FFF720FF86A0FFF71DFF4FF41D
:104BC000FA7000F0D7F819B000BD00B599B06EA02A
:104BD000FFF712FF322000F0CDF8A92274A1684639
:104BE00000F0F6FC6846FFF707FF322000F0C2F83D
:104BF0007948FFF701FF73A0FFF7FEFE77A1684633
:104C000000F0E6FC6846FFF7F7FE72A0FFF7F4FE3F
:104C10004FF4FA7000F0AEF8D5E7F0B5064699B05B
:104C20001D4617460C4658A0FFF7E6FE322000F05E
:104C3000A1F8F2225EA1684600F0CAFC6846FFF7C0
:104C4000DBFE322000F096F86648FFF7D5FE5DA047
:104C5000FFF7D2FE64A0FFF7CFFE64A0FFF7CCFE03
:104C6000224664A1684600F0B3FC6846FFF7C4FE24
:104C70005DA0FFF7C1FE60A0FFF7BEFE3A465DA152
:104C8000684600F0A5FC6846FFF7B6FE56A0FFF7A1
:104C9000B3FE5BA0FFF7B0FE324656A1684600F0B7
:104CA00097FC6846FFF7A8FE0024224655F82430FA
:104CB00055A1684600F08CFC6846FFF79DFE641C19
:104CC000072CF2DD43A0FFF797FE4FF4FA7000F0D7
:104CD00051F819B0F0BD00B52BA02DED028B99B0A5
:104CE000B0EE408AFFF788FE322000F043F8AE2293
:104CF0002FA1684600F06CFC6846FFF77DFE32206D
:104D000000F038F84348FFF777FE2EA0FFF774FE57
:104D100018EE100A00F065F941EC100B3EA153ECBF
:104D2000102B684600F054FC6846FFF765FE29A08A
:104D3000FFF762FE4FF4FA7000F01CF819B0BDECFA
:104D4000028B00BD00B5CBB00FA0FFF755FE64206D
:104D500000F010F8542216A1684600F039FC6846AD
:104D6000FFF74AFE642000F005F82E48FFF744FEE6
:104D70004BB000BD2C4908B50A6800920A68009B38
:104D8000D21A8242FAD308BD41542B43495053549E
:104D90004152543D22544350222C223134302E3182
:104DA00031382E3137302E3133222C38300D0A0075
:104DB00041542B43495053454E443D25640D0A0050
:104DC0003C600008613132330000000026427574F7
:104DD0003D3100000D0A0000DC600008264C6576BD
:104DE0003D3100007C6100082600000054656D3DE7
:104DF000000000002532640048756D3D0000000091
:104E00005754656D3D000000265765742531643D9B
:104E1000253164009C5F000826466C773D25362EC0
:104E200033660000445F00085C00002040EA010394
:104E30009B0703D009E008C9121F08C0042AFAD250
:104E400003E011F8013B00F8013B521EF9D2704714
:104E5000D2B201E000F8012B491EFBD270470022BC
:104E6000F6E710B513460A4604461946FFF7F0FF69
:104E7000204610BD421C10F8011B0029FBD1801AEE
:104E8000704710B5002200E0521C835C8C5CA3428A
:104E900001D1002BF8D1D8B2E1B2401A10BD70B5E3
:104EA000064600F0A9FB046805460A2200213046A8
:104EB00000F019F92C6070BD2DE9F04D81EA030472
:104EC00004F0004B21F0004514464FF0000A23F097
:104ED000004150EA050220D054EA01021DD0C5F37A
:104EE0000A570246C5F31303C1F31300C1F30A5670
:104EF00040F4801543F48013A7EB0608101BD64638
:104F000008F2FD3873EB050002D308F1010801E057
:104F100092185B41B8F1000F03DA00200146BDE8AA
:104F2000F08D00204FF48011064684460EE0171BDA
:104F300073EB050705D3121B63EB050306434CEA2D
:104F4000010C49084FEA300092185B4150EA010712
:104F5000EDD152EA030012D082EA040083EA05018F
:104F6000084305D0101BAB4106D20122002306E006
:104F700000224FF0004302E06FF0010253101AEBE1
:104F800006004CEB085110EB0A0041EB0B01BDE8A9
:104F9000F04D00F0E0B80EB540F23341029100212F
:104FA000CDE900110A460B4600F0E4F803B000BD5D
:104FB000C1F30A5210B5C1F3130140F2FF3341F4BB
:104FC00080119A4201DA002010BD40F233439A4228
:104FD000A2F2334203DC524200F075F810BD90405B
:104FE00010BD00F0004230F000400AD0C10D01F5C4
:104FF0006071C0F3160042EA0151C2084007114334
:10500000704700200146704730B5041E71F100045E
:1050100004DB4FF00044404264EB0101141E73F1C5
:10502000000405DB1C464FF00043524263EB0403CF
:105030008B4208BF824230BD30B50B46014600208E
:105040002022012409E021FA02F59D4205D303FA4A
:1050500002F5491B04FA02F52844151EA2F10102CB
:10506000F1DC30BD2DE9F05F0546002092469B46FD
:1050700088460646814640241BE02846414647466E
:10508000224600F020F853465A46C01A914110D3E8
:1050900011461846224600F017FA2D1A67EB010850
:1050A0004F4622460120002100F00EFA17EB0009BE
:1050B0004E41201EA4F10104DFDC484631462A4659
:1050C0004346BDE8F09F202A04DB203A21FA02F093
:1050D0000021704721FA02F3D040C2F12002914032
:1050E0000843194670472DE9F04791460F46804620
:1050F0000446002614F8015B2DB100F007FA0068A1
:10510000405DC007F6D12B2D02D02D2D18D0641E86
:105110004A463946204600F0FDF927B13968A142D8
:1051200001D1C7F8008071054FF002040BD5404251
:10513000002803DD00F060FA0460A007BDE8F087F6
:1051400046F48066E4E70028F8DA00F055FA0460D7
:105150006FF00040F2E710B5141E73F1000408DA96
:10516000401C41F1000192185B411A4301D120F02B
:10517000010010BD2DE9F04D92469B4611B1B1FAE8
:1051800081F202E0B0FA80F22032904600F09CF901
:1051900004460F4640EA0A0041EA0B0153465A46CC
:1051A000084313D0114653EA010019D0C8F1400258
:1051B0005046FFF788FF05460E4650465946424680
:1051C00000F082F9084305D0012004E0204639466A
:1051D000BDE8F08D0020054346EAE0762C433743D6
:1051E0000A986305E40AA0EB08000022FD0A44EADD
:1051F00047540A3002D500200146E9E7010510199D
:105200006941DDE9084500196941BDE8F04DA2E7B3
:105210002DE9FE4F804681EA0300C00F0C46009046
:1052200021F0004123F00045B8EB0200A94105D26E
:105230004046214690461C460B46024623F000405D
:10524000104347D0270DC7F30A00C3F30A51029059
:10525000401A019040286BDAC3F3130040F4801B1E
:105260000098924620B10023D2EB030A63EB0B0BAC
:1052700001985946C0F14002504600F025F9064613
:105280000D4650465946019A00F02DF910EB0800E2
:105290006141002487EA115284EAE7731A4340D03F
:1052A000009A62B3019A012A4FEA075215DC001BEB
:1052B00061EB02014FF0004202EA0752CDE90042E1
:1052C000001C41F5801132462B46FFF753FF03B017
:1052D000BDE8F08F40462146F9E7001B61EB020173
:1052E000001C41F5801300185B412018A2F500173F
:1052F00047EB030140EAD570B6196D4111E06D0826
:105300004FEA360645EAC0754FEA0752001B61EBCB
:105310000201001C41F5801149084FEA30000019D4
:10532000514132462B4603B0BDE8F04FFFF713BFA3
:105330000098012240000023D0EB020263EBE073EF
:10534000009821464FEAE074B8EB000061EB0401DD
:10535000E9E783F000435BE781F0004158E72DE97E
:10536000FE4F81EA030404F0004421F00041009460
:105370004FF0000B23F0004350EA01045ED052EAE4
:1053800003045BD0C3F30A54C1F30A552C44A4F2BE
:10539000F3340194A0FB0254C1F3130141F48011D2
:1053A000C3F3130343F4801301FB024400FB034ED9
:1053B000840A970A44EA815447EA8357A4FB0768A2
:1053C00002958D0A05FB07854FEA932C04FB0C54CC
:1053D0002705029D4FEA065847EA1637B5EB080540
:1053E0006EEB070C870E920E47EA811742EA831292
:1053F000A7FB0201B6EB0B0164EB00042B0D43EAA3
:105400000C335E1844EB1C50DA465146E7FB0201B0
:10541000C5F313044FEA0B3343EA14534FEA043243
:10542000019C43EA0603A4F10C040294009CCDE91C
:1054300000B4FFF79FFE03B0BDE8F08F00200146E7
:10544000F9E7C1F30A52C1F3130140F2FF3341F40B
:1054500080119A4202DA00200146704740F233433D
:105460009A42A2F2334202DC5242FFF72CBE00F015
:105470002BB8000030B5041E71F1000404DB4FF0BE
:105480000044404264EB0101141E73F1000405DB8B
:105490001C464FF00043524263EB0403994208BF9D
:1054A000904230BD064C074D06E0E06840F0010335
:1054B00094E8070098471034AC42F6D3FAF768FE38
:1054C0001C6200083C620008202A04DB203A00FA33
:1054D00002F1002070479140C2F1200320FA03F34B
:1054E000194390407047202A06DBCB17203A41FA37
:1054F00002F043EAE07306E041FA02F3D040C2F161
:105500002002914008431946704700000048704748
:10551000405F00082DE9F05F8246007800271546BD
:105520008B460AF10104B946302801D09DB113E041
:1055300014F8010B0127782803D0582801D045B171
:105540000AE00DB1102D07D10027102514F8010B2A
:1055500002E0082500E00A250026B0460EE005FB23
:10556000080005FB06F1012701EB10461FFA80F841
:10557000B6F5803F00D3B94614F8010B294600F078
:1055800018F80028EBDABBF1000F05D00FB1641E4C
:1055900000E05446CBF80040B9F1000F06D000F00F
:1055A0002BF802210160C81EBDE8F09F48EA0640C2
:1055B000FAE73A2800D2303820F02002412A01D3FD
:1055C000A2F13700884201D34FF0FF30704700004E
:1055D0000FB4084B10B504A902AA039800F0D2F842
:1055E000044602A9002000F064FC204610BC5DF8CF
:1055F00014FB0000B35E0008004870479C000020C8
:1056000002E008C8121F08C1002AFAD1704770478B
:10561000002001E001C1121F002AFBD170470000E9
:105620002DE9FF5FDDE90220010DDDF838B002430E
:1056300018D044F61050A1F2FF3141430D140F98D9
:10564000012820D0A5EB0B00401C5FEA000A4FF0B8
:105650000004474EDFF81C91A046504616D5CAF10B
:10566000000728E00F98012443A2012808D0002158
:1056700000980F9BC0E90021C0E90243BDE8FF9FED
:105680006FEA0B01F4E7CBF10000DEE7074612E01A
:10569000F80707D02246334640464946FFF75FFEEB
:1056A000804689462246334610461946FFF757FE84
:1056B00004460E467F10002FEAD1DDE90201BAF15F
:1056C000000F42464B4602DAFFF749FE01E0FFF7C2
:1056D000F3FB04460E460022284BFFF7CBFE03D80F
:1056E0004FF0FF30014607E00022254B20463146AF
:1056F000FFF78EFDFFF7A5FE102409E0002C0ADB62
:105700000A220023FFF7AEFC019B30321A55641EBB
:1057100050EA0102F2D1641C019AC4F1110314444D
:105720000F9A012A03D0012208430DD10AE0084351
:1057300004D000204FF0110B0F9080E7A3EB0B0576
:105740006D1E0DE05B4504DD4FF0000205F1010523
:1057500004E003DA4FF00002A5F10105002AECD0C5
:1057600000980F99C0E90231C0E9004586E70000C2
:10577000000024400000F03F300000000000F04333
:105780000000E03F2DE9FF4F95B09B468946064655
:1057900000250FE2252877D100242746F84A012169
:1057A000059400E0044316F8013F203B01FA03F0A2
:1057B0001042F7D130782A2811D06FF02F033078BB
:1057C000A0F13002092A16D8059A44F0020402EB2F
:1057D000820203EB42021044761C0590EFE759F871
:1057E000042B0592002A03DA504244F40054059039
:1057F00044F00204761C30782E2816D116F8010FDA
:1058000044F004042A280DD06FF02F023078A0F164
:105810003003092B09D807EB870302EB4303C718B2
:10582000761CF3E759F8047B761C30786C280FD08F
:1058300006DC4C2817D068280DD06A2814D104E063
:10584000742810D07A280FD10DE044F400140AE037
:1058500044F4801401E044F440147278824202D18E
:1058600004F58014761C761C307866280BD013DC87
:10587000582877D009DC002875D04528F6D046286E
:10588000F4D047281AD19DE118E0632835D0642868
:1058900079D0652812D195E1702873D008DC67288B
:1058A000F1D069286FD06E280DD06F2806D1B5E0F1
:1058B00073282CD0752875D0782874D05A4617993B
:1058C00090476D1C75E1C4F30250022809D00328EB
:1058D0000DD0D9F8001004280DD00D6009F104098D
:1058E00067E1D9F80010EA17C1E90052F6E7D9F8E4
:1058F00000100D80F2E70D70F0E719F8041B8DF829
:10590000001000208DF80100EA46012003E059F85C
:1059100004AB4FF0FF3061074FF0000102D40DE0FF
:1059200008F101018846B9420FDA8045F8DB1AF820
:1059300008100029F4D108E008F1010188468142ED
:10594000FADB1AF808100029F6D105985B46A0EB9F
:10595000080721463846179A00F094FA284400EBCD
:10596000080507E04DE029E10DE01AF8010B5A4661
:1059700017999047B8F10108F7D25B46214638469F
:10598000179A13E142E00A220092C4F302524FF048
:10599000000A022A08D059F804CB032A4FEAEC7116
:1059A0000AD00DE029E02AE009F1070121F0070201
:1059B000F2E802C1914609E00FFA8CFC4FEAEC7163
:1059C000042A03D14FFA8CFC4FEAEC71002907DA64
:1059D0000A460021DCF1000C61EB02012D2202E0FD
:1059E000220504D52B228DF80420012203E0E207D2
:1059F00001D02022F7E7904659E00A2102E0102268
:105A00000DE010214FF0000A00910BE010224FF042
:105A1000000A44F004040827009203E008224FF033
:105A2000000A0092C4F30252022A05D059F804CBAE
:105A30000021032A08D009E009F1070121F007023B
:105A4000F2E802C1914605E01FFA8CFC042A01D15C
:105A50000CF0FF0C4FF00008220728D5702806D064
:105A6000009B83F0100353EA0A0305D00EE04022A6
:105A70008DF80420012208E05CEA010206D0302201
:105A80008DF804208DF8050002229046009B83F0DB
:105A9000080353EA0A030AD15CEA010201D1620752
:105AA00005D530228DF804204FF001087F1E5828BC
:105AB00004D034A003900EA802900DE036A0F9E7C0
:105AC00053466046009AFFF7CDFA84460398825CFD
:105AD0000298401E029002705CEA0100F0D1029828
